:100000000C940D020C941F020C941F020C94A72454
:100010000C94C5210C941F020C941F020C941F0217
:100020000C941F020C941F020C941F020C94E619EE
:100030000C941F020C941F020C941F020C941F02BC
:100040000C94B0310C941F020C949B340C94D53159
:100050000C941F020C941F020C941F020C941F029C
:100060000C941F020C941F026A0A700A730A760A23
:100070007B0A830A8B0A230B230B230B980A9B0A08
:10008000A40AAD0A230B230B230B230B230B230BF7
:10009000B90AC30ACF0AD70ADA0AE30AEC0AF20A53
:1000A000230B230BFB0A040B0F0B9A0D6E196E1911
:1000B000A70D6E196E19B10DBE0DCB0DD80D6E19B1
:1000C000DC0D6E19EA0D6E19F40DFE0D080E6E1999
:1000D0006E196E19180E250E320ED134D3340E352A
:1000E0000E350E350E350E350E350E350E350E35F8
:1000F0000E35D934DB34DD34DF34E134E334E53438
:10010000E7340E35EB34ED34EF34F134F334F534B9
:100110000E35F734F934084AD73B3BCE016E84BC28
:10012000BFFDC12F3D6C74319ABD56833DDA3D0051
:10013000C77F11BED9E4BB4C3E916BAAAABE00009A
:1001400000803F05A84CCDB2D44EB93836A9020C78
:1001500050B9918688083CA6AAAA2ABE0000008051
:100160003F000D0A4772626C20312E3168205B27F8
:10017000242720666F722068656C705D0D0A00246C
:100180004E005B4F50543A005B5645523A312E3187
:10019000682E32303139303833303A005B544C4FAE
:1001A0003A005B4739323A003330003238005B475F
:1001B00000204700204D002053002046002054001E
:1001C00033382E005B47433A47005B484C503A2493
:1001D0002420242320244720244920244E2024782E
:1001E0003D76616C20244E783D6C696E6520244A12
:1001F0003D6C696E652024534C50202443202458C4
:10020000202448207E2021203F206374726C2D78AA
:100210005D0D0A00536C656570696E670052657309
:10022000746F72696E67207370696E646C650052DA
:100230006573746F72696E672064656661756C744E
:10024000730050676D20456E6400436865636B20E2
:100250004C696D69747300436865636B20446F6F0C
:10026000720044697361626C656400456E61626C22
:1002700065640043617574696F6E3A20556E6C6FEA
:10028000636B656400272448277C27245827207443
:100290006F20756E6C6F636B0052657365742074AC
:1002A0006F20636F6E74696E7565005B4D53473ADE
:1002B000004649524D574152455F4E414D453A47E0
:1002C00072626C2C204649524D574152455F55523F
:1002D0004C3A68747470733A2F2F6769746875624A
:1002E0002E636F6D2F6F70656E706E702F67726208
:1002F0006C2C204649524D574152455F564552534A
:10030000494F4E3A20312E31680D0A0057506F7315
:100310003A00414C41524D3A00437261736820509B
:10032000726576656E7465642120506C7320526529
:100330006F6E6E65637420616E642052652D686F08
:100340006D65007C413A007C4F763A007C57434F04
:100350003A007C506E3A007C46533A007C42663A42
:10036000007C57506F733A007C4D506F733A0053C6
:100370006C65657000446F6F723A00436865636B2B
:1003800000416C61726D00486F6D65004A6F6700D7
:10039000486F6C643A0052756E0049646C65009A4F
:1003A0009931429A9931426646844304560E41007F
:1003B000409C4600409C4600409C4500401C470035
:1003C000BA5B4A00BA5B4A00BA5B4A00BADB4A0031
:1003D000009BC30000A5C30000F0C1000000800A1C
:1003E000000419010AD7233C6F12033B00007A4432
:1003F0000000000000000080174333338341FA00FF
:10040000000000000D0A006F6B0D0A005B505242A5
:100410003A006572726F723A000011241FBECFEF6E
:10042000D8E0DEBFCDBF27E0A0E0B1E001C01D9263
:10043000A13FB207E1F70E946F050C94A33A0C9418
:1004400000002F923F924F925F926F927F928F9215
:100450009F92AF92BF92CF92DF92EF92FF920F9353
:100460001F93CF93DF93CDB7DEB7C455D1090FB635
:10047000F894DEBF0FBECDBF182F092F7B018091EE
:10048000880185FF26C0D090220120E2D21631F1EA
:10049000812F0E9437218823E1F081E0809325019C
:1004A00038E0D31641F00E94793482E00E941E2188
:1004B0000E9406330EC088E00E942E210E9406335F
:1004C00080912301811105C0809122018111F6CF15
:1004D000EACF80912201823009F4E7C20E940633FC
:1004E000809123018111E1C290918A0580912902B6
:1004F000981303C00E94CD31F1CF80918B05282E37
:10050000312C96E3929D9001939D300D1124A90109
:10051000465D5D4F2B965FAF4EAF2B97FA01119260
:100520009A95E9F7F7019085FA01958BF7014481D7
:100530005581668177812B96EEADFFAD2B9742AB4F
:1005400053AB64AB75AB91FF4CC090E1E2E1F1E0DD
:10055000DE01919601900D929A95E1F724961FAFD6
:10056000249725960FAF259743E351E027965FAF79
:100570004EAF2797FE01F1966396FFAFEEAF6397FC
:100580009E012F5D3F4F61963FAF2EAF619736E3DF
:10059000839FC0011124AC01465D5D4F2F965FAF74
:1005A0004EAF2F97CE0141962D969FAF8EAF2D97D0
:1005B00029969FAF8EAF299710E086E3829D900128
:1005C000839D300D1124C901865D9D4FFC017096FD
:1005D0006596FFAFEEAF65976C01F4E1CF0ED11CCD
:1005E00044C090E1ECE8F5E0B3CF2F96EEADFFAD5F
:1005F0002F9721933193419351932F96FFAFEEAFF5
:100600002F976596EEADFFAD659780809180A280B3
:10061000B38082169306A406B50610F449015A0168
:100620006596EEADFFAD659780829182A282B3821E
:100630000E947D37A30192010E94D3362996EEAD28
:10064000FFAD299761937193819391932996FFAFA1
:10065000EEAF299720E030E0A9010E94C93687FD5E
:100660004AC01F5F143009F458C02596EEADFFADA7
:10067000259761917191819191912596FFAFEEAF90
:1006800025972796EEADFFAD279741905190619049
:1006900071902796FFAFEEAF2797A30192010E94BA
:1006A0002B390E94F8386396EEADFFAD63976193E6
:1006B0007193819391936396FFAFEEAF63976196C9
:1006C000EEADFFAD619781909190A190B190619650
:1006D000FFAFEEAF6197681979098A099B099B0101
:1006E000AC0197FF82CF22273327A901261B370BA6
:1006F000480B590B7ACF112331F0113031F0123001
:1007000031F080E105C081E003C082E001C084E0F7
:10071000F6019081892B8083A4CF89288A288B2891
:1007200009F4B4C1CE0141960E9467254B015C01DA
:1007300086E3829D8001839D100D1124065D1D4F6F
:10074000F80182A293A2A4A2B5A2BE016F5E7F4F60
:1007500083E591E00E941125F801668F778F80A3D1
:1007600091A3BE016F5E7F4F83E491E00E9411254B
:10077000F80162A773A784A795A7D588D0FC12C0FB
:10078000F7012081318142815381D3FC06C0F801F9
:1007900026A737A740AB51AB09C0C501B4010E94E1
:1007A0002B39F80166A777A780AB91AB90918B05A9
:1007B00080918A05981711F0D1FE0DC086E3829DC5
:1007C000F001839DF00D1124E65DFD4F168A178A16
:1007D000108E118E68C02CE935E025963FAF2EAF04
:1007E00025978E010F5F1F4FAE014F5D5F4F239620
:1007F0005FAF4EAF2397C12CD12C760126960FAF59
:10080000269728961FAF28972596EEADFFAD259722
:1008100081909190A190B1902596FFAFEEAF259772
:100820002D96EEADFFAD2D97419051906190719056
:100830002D96FFAFEEAF2D97A3019201C501B40134
:100840000E942B399B01AC01C701B6010E94D33530
:100850006B017C01A5019401C301B2010E94D33553
:10086000F80161937193819391938F0123962EAD3B
:100870003FAD23972D964EAD5FAD2D9724173507CD
:1008800019F62FEE3FEF4FE75FE3C701B6010E9475
:10089000EB3818166CF486E3829DF001839DF00D11
:1008A0001124E65DFD4F16A217A210A611A679C06D
:1008B0002FEE3FEF4FE75FEBC701B6010E94C9364D
:1008C00087FF11C086E3829DF001839DF00D112406
:1008D000E65DFD4F89E996E7A6E9BEE786A397A303
:1008E000A0A7B1A75EC026968FAD269728969FAD8C
:1008F00028970E94672526966FAD269728967FAD8C
:10090000289783E591E00E9411254B015C01A70126
:10091000960160E070E080E89FE30E94D33520E01C
:1009200030E040E05FE30E942B390E94CA396B013E
:100930007C01209178013091790140917A015091A8
:100940007B01C501B4010E942B39A70196010E94C9
:100950002B394B015C01A701960160E070E080E853
:100960009FE30E94D3359B01AC01C501B4010E94F5
:10097000D3366B017C0120E030E0A9010E94C9362A
:1009800087FF03C0C12CD12C760186E3829DF00144
:10099000839DF00D1124E65DFD4FC6A2D7A2E0A60F
:1009A000F1A686E3829D8001839D100D1124065DD2
:1009B0001D4FF801858981FD78C02B968EAD9FADC6
:1009C0002B970E940E266B017C018090AC059090C5
:1009D000AD05A090AE05B090AF05A50194010E94B1
:1009E000EB3818162CF4A5019401C501B40104C01C
:1009F000A7019601C701B6010E942B39F801628F49
:100A0000738F848F958F86E3829D8001839D100D67
:100A10001124065D1D4FF80186A097A0A0A4B1A4E3
:100A2000A5019401628D738D848D958D0E94EB38A4
:100A300018162CF4F801828E938EA48EB58EC09277
:100A4000AC05D092AD05E092AE05F092AF0580E125
:100A5000FE017196ACE9B5E001900D928A95E1F73F
:100A600080E1FE01F196ACE8B5E001900D928A9527
:100A7000E1F78091290280938B058F5F803109F423
:100A800080E0809329020E94A2260FC080918801F5
:100A900081FF0BC0F701808584FF07C04481558129
:100AA0006681778180E10E942934CC5ADF4F0FB6EE
:100AB000F894DEBF0FBECDBFDF91CF911F910F9194
:100AC000FF90EF90DF90CF90BF90AF909F908F906E
:100AD0007F906F905F904F903F902F900895CF93AD
:100AE000DF93CDB7DEB765970FB6F894DEBF0FBEC4
:100AF000CDBF8091C00082608093C0001092C5007D
:100B000080E18093C4008091C10088698093C10016
:100B100080E090E00E945C298A3009F0CFC545E66C
:100B200050E061E070E083E391E00E94EA27892BC6
:100B300009F4C4C58AB18C678AB9579A84B18761B0
:100B400084B9809181008F7E8093810080918100A3
:100B5000886080938100809180008C7F80938000EA
:100B6000809180008F708093800080916E00887FDC
:100B700080936E0014BC15BC80916E0081608093E0
:100B80006E0087B1887F87B988B1876088B9809106
:100B90006C00876080936C00809168008260809315
:100BA000680080E1E2E1F1E0DF011D928A95E9F75A
:100BB0007894109222018091880184FF03C081E023
:100BC00080932201F2E22F2EF1E03F2E992493949C
:100BD0008091220191E1F10111929A95E9F78093B8
:100BE000220184E68093290180932A0180932B01BE
:100BF00080E1A1E0B1E01D928A95E9F71092110120
:100C00001092B0051092B1051092B2051092B30582
:100C100080912602809327028CE4E8E9F1E01192AA
:100C20008A95E9F760EC71E080E00E94BC288111B0
:100C300003C087E00E941E230E9447343C9A3D9ADD
:100C40000E942C320E94F7243E98469A80E00E942F
:100C5000FF210E9491260E947B310E94FD250E9467
:100C6000733482E691E00E940B238091880183FF18
:100C700010C00E94D624882361F0909222018BEA52
:100C800092E00E940B238AE492E00E940B230E94D0
:100C9000782480912201817899F08BEA92E00E9479
:100CA0000B2385E892E00E940B230E947824909207
:100CB000220110E000E072E0E72EE3E08E2E50C04B
:100CC0001092220110E0812F0E946B2881110EC02A
:100CD0001092A1078EE30E94FF310E94FF208AE359
:100CE0000E94FF3187E00E941E2312C08091A1075D
:100CF000882371F00E94670B082F8EE30E94FF315A
:100D00000E94FF208AE30E94FF31802F0E942A2345
:100D10001F5F1230C1F6CDCFE92FF0E0EF54F94F4D
:100D200080819F5F913809F490E0909327028F3F74
:100D3000E9F08A3021F50E94063380912301811168
:100D400047CFE12FF0E0EF55F84F1082F02FF17010
:100D5000FF2E00FF18C08BE00E941E2310E000E071
:100D600090912702809126029813D6CF0E94CD3110
:100D70000E94063380912301882391F329CF8D307F
:100D800009F076C4D8CF8091A107882309F46DC4F7
:100D9000843209F062C49D8A8091A207833409F1EC
:100DA00034F4882361F0843209F017C11AC08A3400
:100DB00059F08835B1F0873409F00FC112C08AECC0
:100DC00091E00E940B2347C4809122018F7D09F09E
:100DD00032C48091A3078D3309F035C40E94670B9C
:100DE0002DC49091A30791112EC4833409F4C3C07C
:100DF0001CF4843239F02FC4873469F0883509F443
:100E0000DAC029C4809122018871F82E09F013C438
:100E10000E94662320C484EC91E00E940B23809101
:100E200098018C3838F080EC91E00E940B2380917F
:100E300098018A580E94E52281EB91E00E940B23E1
:100E400080919E018A5C0E94E52281EB91E00E94E4
:100E50000B2380919C018F5E0E94E52281EB91E043
:100E60000E940B2380919A0125E1281B822F0E946A
:100E7000E52281EB91E00E940B2380919B01865A31
:100E80000E94E52281EB91E00E940B238091990161
:100E90009EE5981B892F0E94E52280919F0188235F
:100EA00099F084EB91E00E940B2380919F018330A5
:100EB00029F08E3139F0823039F404C080E30E9489
:100EC000FF3102C00E94E52284EB91E00E940B23D7
:100ED0008091A101803131F0803231F0811107C061
:100EE00085E303C083E301C084E30E94FF31809166
:100EF000A001882399F087FF07C084EB91E00E944E
:100F00000B2387E30E94FF318091A00186FF0DC073
:100F100084EB91E00E940B2388E305C084EB91E011
:100F20000E940B2389E30E94FF318DEB91E00E9428
:100F30000B238091AB010E94E5228AEB91E00E9495
:100F40000B236091A7017091A8018091A901909154
:100F5000AA010E94AE2287EB91E00E940B236091D0
:100F6000A3017091A4018091A5019091A60140E098
:100F70000E9411220EC080912201823069F40E94E9
:100F800079348BEA92E00E940B2382E692E00E9481
:100F90000B230E9478245FC381114DC3E09222018C
:100FA0008BEA92E00E940B238BE692E00E940B23D7
:100FB0000E9478243BC080912201813009F04BC30C
:100FC0008BEA92E00E940B2383E792E00E940B23BE
:100FD0000E947824109222013EC390912201923007
:100FE00008F029C3893409F4FAC034F4833271F06B
:100FF000883409F45AC0A1C1823509F448C1833547
:1010000009F4DBC08E3409F098C171C18091A30747
:10101000811119C310E0BE016F5F7F4F812F0E94C5
:10102000BC28811105C087E00E941E23F12C13C348
:101030008EEA91E00E940B23163029F0173041F41C
:1010400088EA91E002C08BEA91E00E940B2304C081
:1010500086E3810F0E94E5228AE30E94FF31CE01E0
:1010600001960E94CC220E9478241F5F183099F6C6
:1010700082EA91E00E940B2380ED91E00E94CC2255
:101080000E9478248CE991E00E940B236091E0019A
:101090007091E1018091E2019091E3010E94BD22F3
:1010A0000E9478240E947D24D6C28091A3078111DA
:1010B000D2C28091880180628093880120918A0148
:1010C00030918B0140918C0150918D0160916301B1
:1010D0007091640180916501909166010E94D43500
:1010E0002091330130913401409135015091360106
:1010F0000E942B390E9445376093120170931301AF
:10110000809314019093150120918E0130918F01ED
:101110004091900150919101609167017091680137
:101120008091690190916A010E94D4352091370124
:10113000309138014091390150913A010E942B3988
:101140000E94453760931601709317018093180130
:10115000909319012091940130919501409196014D
:101160005091970160916B0170916C0180916D01BC
:1011700090916E010E94D43520913B0130913C0149
:1011800040913D0150913E010E942B390E9445370C
:1011900060931A0170931B0180931C0190931D01B1
:1011A00010921E0110921F01109220011092210135
:1011B0000E9473340E94FD254EC28091A3078C3497
:1011C00009F041C28091A407803509F03CC28091AA
:1011D000A507811138C280E80E942E213CC2ED8A09
:1011E0008091A307811136C040E550E06EEA73E0BC
:1011F00081EA97E00E94EA27892B51F41092A10717
:1012000040E550E061EA77E08EEA93E00E942E2804
:1012100088E891E00E940B230E94FF200E9478241E
:1012200082E891E00E940B2386E50E94FF318DE465
:101230000E94FF3184E40E94FF318CE20E94FF3162
:101240008FE00E94E5228CE20E94FF3180E80E943C
:10125000E5229FCE8D8A8D3309F0F5C183E0282FDA
:1012600030E0F901EF55F84F9081D901A256B84FFF
:101270009C938F5F90819111F2CF8D8B40E550E070
:1012800061EA77E08EEA93E00E942E28E4C1809123
:10129000A307833509F0D7C18091A407843509F0ED
:1012A000D2C18091A5078D3309F0CDC18091A707E8
:1012B0008111C9C18091A607843239F08A3239F090
:1012C000833209F0C0C182E003C081E001C08FEF2A
:1012D0000E94DD288BEA92E00E940B238FE292E0CD
:1012E0000E940B230E9478240E947934B4C1ED8AB5
:1012F0008091A30781111DC010E0812F0E946B28EF
:10130000811104C087E00E941E230EC08FE791E088
:101310000E940B23812F0E94E5228DE30E94FF3162
:101320000E94FF200E941A231F5F123009F493C10C
:10133000E4CF911180C111E001C010E0BE016F5EE9
:101340007F4FCE0145960E941F35811103C062E098
:10135000F62E81C1ED8981E08E0F8D8BF0E0EF5587
:10136000F84F90819D3309F06EC1112371F1482F20
:1013700050E0282F30E0F901EF55F84F9081241B01
:10138000350BD901AF55B84F9C938F5F9081911168
:10139000F0CF8D8B0E94670B811150C169897A89CA
:1013A0008B899C890E940E3A0E944C37162F0E940E
:1013B0001834A1E51A9FC001112440E550E061EA0C
:1013C00077E09D5F0E942E2831CEBE016F5F7F4F78
:1013D000CE0145960E941F35882309F4B8CFED89C8
:1013E000F0E0EF55F84F808181112DC1A988BA88AE
:1013F000CB88DC8820E030E04FE753E4C601B5013C
:101400000E94EB3818160CF41EC149805A806B807C
:101410007C80C601B5010E944C37062F20E030E0E9
:10142000A901C301B2010E94C93687FD09C1043672
:1014300008F440C0045680E0043098F510E0000F36
:10144000111F000F111F823079F0F801833011F164
:10145000813019F0ED5CFE4F02C0ED5BFE4F408223
:10146000518262827382E4C00D5A1E4F20E030E048
:1014700040E752E4C301B2010E942B3920E030E082
:1014800040E752E40E942B39F80160837183828324
:101490009383CEC0ED59FE4F77FA709477F870942D
:1014A000DECF8F5F0A3008F4CEC0843009F4CBC0A1
:1014B0000A50C2CFC301B2010E940E3A0E944C37BB
:1014C00010E00132110508F0BEC0F801EC5CFF4FDE
:1014D0000C94763A633008F4B9C060937301A8C0E5
:1014E00060937601A5C06093740102C0609375019A
:1014F0000E943A319DC080918801662311F084607A
:1015000095C08B7F93C080918801662311F0806421
:101510008DC08F7B8BC080918801662311F080681D
:1015200001C08F778093880180E00E94FF2180C0F6
:10153000609377017DC0409278015092790160926A
:101540007A0170927B0174C040927C0150927D01BF
:1015500060927E0170927F016BC08091880166234A
:1015600011F0816001C08E7F809388010E94AE21BE
:101570005FC080918801662321F084FF6AC0806289
:1015800055C08F7D53C080918801662311F088601B
:1015900001C0877F809388010E94F72449C0809111
:1015A0008801662311F0806141C08F7C3FC0609349
:1015B00089013EC040928A0150928B0160928C0159
:1015C00070928D0135C040928E0150928F016092D1
:1015D0009001709291012CC070E070939301609320
:1015E000920126C04092940150929501609296011A
:1015F000709297011DC040928001509281016092CB
:1016000082017092830108C040928401509285014A
:1016100060928601709287010E94473409C08091D0
:101620008801662311F0826001C08D7F809388015C
:101630000E948D2810C048E0F42E0DC0F82E0BC07B
:1016400034E0F32E08C023E0F22E05C096E0F92E18
:1016500002C08AE0F82E8F2D08C08091220181728D
:1016600011F089E079CB0E94670B0E942A2376CB88
:10167000002329F0893209F073CB0D7F71CB8132C1
:1016800008F46ECB8F3209F46BCB883289F08B3340
:1016900089F01F3488F4212F30E01F5F9FE9980FF5
:1016A000F901EF55F84F9A3108F48052808358CBF6
:1016B00002E056CB04E054CB01E052CB87E00E941D
:1016C0001E238FEF0E94DD280E94662333CA2F92CB
:1016D0003F924F925F926F927F928F929F92AF92C2
:1016E000BF92CF92DF92EF92FF920F931F93CF930F
:1016F000DF93CDB7DEB7C355D1090FB6F894DEBF7F
:101700000FBECDBF82E4E4EEF1E0DF011D928A95C9
:10171000E9F78BE0E8E9F1E0A5EEB1E001900D9288
:101720008A95E1F78091A107843211F00C948F190A
:1017300081E08093E5011092E60183E08DA3B1E0A2
:10174000BEA7212C312C1BAE1AAE1CAA1EA21AA6B3
:10175000EE24E394F12C77247394EEE56E2EF1E6FB
:101760004F2EF3E05F2E8DA1E82FF0E0EF55F84FFC
:10177000D080DD2009F4A7C29FEB9D0D9A3110F0B7
:101780000C945E198F5F8DA3BE016F5D7F4FCE01FC
:1017900085960E941F35882311F40C94601989A046
:1017A0009AA0ABA0BCA0C501B4010E940E3A0E9451
:1017B0004C37162F70E080E090E00E947D379B014F
:1017C000AC01C501B4010E94D33520E030E048EC03
:1017D00052E40E942B390E9498390E944C37CB0169
:1017E000E7E4DE1629F0FDE4DF1609F4E8C091C154
:1017F000183209F4C3C020F5143168F4113108F02F
:101800008AC0143009F451C008F463C01A3009F4D6
:1018100044C00C946E191C3109F43FC050F41631C9
:1018200010F00C946E1925E1211B2093E70106E0CE
:10183000AAC01E3191F1163209F44BC00C946E19F6
:101840001D3309F495C0A0F4153379F140F41B322F
:1018500009F478C0113309F475C00C946E191C3367
:1018600010F00C946E1916531093EB0109E08BC025
:101870001C3538F41A3508F053C0103581F10C943A
:101880006E191C3551F01F3510F00C946E19262D71
:10189000211B2093E60105E076C0009731F42AA5CC
:1018A00021110C94621931E03AA71093E401212F21
:1018B0002D7F2C3119F01C3509F062C0009721F002
:1018C0000A9711F00C946E19610F6093E40100E027
:1018D0005FC04AA541110C946219A2E0AAA7109317
:1018E000E501163209F04EC08431910559F08E3170
:1018F000910541F08832910529F08233910511F06C
:101900000C946E196AE070E00E94403A665760934A
:10191000E50101E03DC011511093E90102E033C03F
:10192000892B29F41A551093E80103E031C06A307D
:10193000710511F00C946E191A3511F40C946E198E
:1019400004E026C0BAA5B1110C946219113331F428
:101950001092EA0108E0E3E0EAA71AC00A9711F042
:101960000C946E197092EA0108E0F3E0FAA710C037
:10197000892B11F00C946E190AE00AC007E003C02D
:1019800000E001C001E0892B19F087E10C94961961
:10199000C701002E02C0880F991F0A94E2F72AADF2
:1019A0003BAD28233923232B19F085E10C9496199C
:1019B0002AAD3BAD282B392B3BAF2AAFD4CE892B98
:1019C00021F71B3040F4173058F5133070F0163003
:1019D000C8F00C946E191237B9F1133709F47EC0B0
:1019E0001E3111F00C946E190AC0112321F0113030
:1019F00009F479C004C083E08093EC0174C01093B3
:101A0000EC0171C0143021F0153031F080E101C0DB
:101A100080E28093EE0102C01092EE010CE064C0FF
:101A2000193071F08091ED011A3021F0183021F059
:101A3000806803C08F7701C080648093ED0102C08D
:101A40001092ED010DE050C080E1E2E1F1E0DE0135
:101A5000519601900D928A95E1F74E0131E1830E86
:101A6000911CB401CE0101960E9472218CE30E9468
:101A7000FF3160ECC62E61E0D62ECE0101965C01EE
:101A8000D6016D917D918D919D916D011C962D9149
:101A90003D914D915C911F970E94D4359B01AC0103
:101AA000F50160817181828193810E94D335D501D6
:101AB0006D937D938D939D935D018A169B0601F72F
:101AC0008CE093E00E940B23CE0101960E94CC2271
:101AD0008EE30E94FF310E941A2306C081EB92E040
:101AE0000E940B2301C00BE0C701002E02C0880F2B
:101AF000991F0A94E2F72AAD3BAD28233923232B03
:101B000009F053CFEAADFBADE82BF92BFBAFEAAF01
:101B10002ACE8D2DDD0C990BAA0BBB0BFC01E354D7
:101B2000F109E831F10510F00C946E19EB5AFF4FF2
:101B30000C94763A8092220290922302A092240280
:101B4000B0922502FEA1F860FEA30DE097C080923E
:101B5000F0019092F101A092F201B092F30100E045
:101B60008DC08092F4019092F501A092F601B0929E
:101B7000F7012CA921602CAB01E080C08092F80114
:101B80009092F901A092FA01B092FB013CA9326057
:101B90003CAB02E073C08092FC019092FD01A092E8
:101BA000FE01B092FF014CA944604CAB03E066C05B
:101BB0001093040204E062C0C501B4010E944537DD
:101BC00060930502709306028093070290930802C7
:101BD00005E054C08092090290920A02A0920B0282
:101BE000B0920C0206E04AC080920D0290920E0262
:101BF000A0920F02B092100207E040C08092110242
:101C000090921202A0921302B092140208E036C021
:101C100020E030E04FE753E4C501B4010E94EB3807
:101C2000181614F40C9464191093150209E026C0D8
:101C30008092160290921702A0921802B092190296
:101C40008EA181608EA30AE019C080921A02909240
:101C50001B02A0921C02B0921D029EA192609EA344
:101C60000BE00CC080921E0290921F02A0922002F4
:101C7000B0922102AEA1A460AEA30CE06701002ED9
:101C800002C0CC0CDD1C0A94E2F7C601822193212C
:101C9000892B11F00C946619C201002E02C0959593
:101CA00087950A94E2F780FF0BC020E030E0A9019D
:101CB000C501B4010E94C93687FF02C00C9468199F
:101CC0002C283D2850CDBEA1BB2329F0EAA5E11167
:101CD00002C0F2E0FAA725FE0FC0809105029091A4
:101CE0000602A0910702B091080281389649A849DE
:101CF000B10514F00C946A193EA5332329F020FC99
:101D000002C00C94741918C08091E601813071F4FE
:101D10004AA54230E1F58091E5018035C1F1882383
:101D2000B1F120FC02C00C94741931C0809199016A
:101D300081112DC020FE1BC08091E701813039F553
:101D400023E333E34BEC51E46091F0017091F10136
:101D50008091F2019091F3010E942B396093F00180
:101D60007093F1018093F2019093F30110C0809180
:101D7000A7019091A801A091A901B091AA01809317
:101D8000F0019093F101A093F201B093F30130FCC4
:101D900010C08091A3019091A401A091A501B091E0
:101DA000A6018093110290931202A0931302B093A4
:101DB00014028091E401843039F426FC03C08CE1E4
:101DC0000C949619E89426F88091E9018823C9F0CB
:101DD000813059F429968FAF299725961FAE259704
:101DE00092E023969FAF239717C029961FAE29979D
:101DF000A2E02596AFAF2597B1E02396BFAF23971A
:101E00000BC0E2E02996EFAF2997F1E02596FFAFEE
:101E1000259723961FAE23978091E701813021F00B
:101E20002AA52330B9F52DC054EEE52E51E0F52E4C
:101E300000E010E03EA1C32ED12CC601002E02C04E
:101E4000959587950A94E2F780FF12C023E333E368
:101E50004BEC51E4D701D2966D917D918D919C917F
:101E6000D5970E942B39F70162AB73AB84AB95AB6E
:101E70000F5F1F4FF4E0EF0EF11C04301105E9F67F
:101E8000CFCF8091EA01813029F42EA1243011F0C6
:101E90000C946C1980E1E0ECF1E0DE011196019008
:101EA0000D928A95E1F78AAD9BAD91FD09C09091A5
:101EB000E4019AAB9A30C9F09C3509F4B1C018C15D
:101EC0008091EB01873018F08DE10C949619909178
:101ED0009E01891761F3BE016F5F7F4F0E94BC288E
:101EE000882311F40C948219E2CFAEA1A11103C092
:101EF0008AE10C949619C10180759927892B09F400
:101F00005ECF6091090270910A0280910B0290915C
:101F10000C020E940E3A0E944C376730A8F680915E
:101F20000402843141F0823011F00C946E1927FEC6
:101F300002C00C946E19BFEA2B22662319F061507F
:101F400068AF03C0E091EB01E8AF64EF71E088ADEA
:101F50000E94BC28882311F40C948219B0900402CA
:101F60004090E0015090E1016090E2017090E30147
:101F700004EE11E048E9C42E41E0D42EE12CF12C0E
:101F8000FEA18F2E912CC4010E2C02C09595879531
:101F90000A94E2F780FF36C024E1B2122AC0D601CB
:101FA000D8962D913D914D915C91DB9758966D910E
:101FB0007D918D919C915B970E94D335F80122A968
:101FC00033A944A955A90E94D335D80150966D93E1
:101FD0007D938D939C935397B2E0EB1213C0A301B2
:101FE00092010E94D335F801608B718B828B938BA9
:101FF00009C0F80182A993A9A4A9B5A9808B918BE6
:10200000A28BB38BFFEFEF1AFF0A0C5F1F4F24E088
:10201000C20ED11C34E0E316F10409F0B4CF37C18D
:102020004EA1442309F464CF4090E0015090E101B7
:102030006090E2017090E30128E9822E21E0922E67
:102040008E010F5F1F4F34EEE32E31E0F32EC12CD3
:10205000D12CA42EB12CC5010C2C02C095958795CE
:102060000A94E2F780FF29C0D8012D913D914D914E
:102070005C91F401608D718D828D938D0E94D335BA
:10208000D701D2962D913D914D915C91D5970E94AB
:10209000D335F70162AB73AB84AB95ABF2E0CF12F3
:1020A00016C0A30192010E94D335D701D2966D9339
:1020B0007D938D939C93D5970AC0F40180AD91AD2B
:1020C000A2ADB3ADF70182AB93ABA4ABB5ABFFEF61
:1020D000CF1ADF0A24E0820E911C0C5F1F4F34E000
:1020E000E30EF11C44E0C416D10409F0B4CFCEC015
:1020F0008AA5833071F49AA99E3109F48FC0953373
:1021000009F4BEC09C3109F0C1C064EF71E086E003
:1021100088C0AEA1AA2379F3B091E801B8AF40908E
:10212000E0015090E1016090E2017090E30198E9D4
:10213000C92E91E0D92E04EE11E0FE0131965F0127
:10214000E12CF12C8A2E912CC4010E2C02C0959505
:1021500087950A94E2F780FD0BC0F601808D918D82
:10216000A28DB38DF80182AB93ABA4ABB5AB45C0E8
:10217000FAA9F53309F441C028AD21112BC0D601CD
:10218000D8962D913D914D915C91DB97F501608141
:102190007181828193810E94D435D801D2962D918C
:1021A0003D914D915C91D5970E94D435F80162AB79
:1021B00073AB84AB95ABF2E0EF121FC0A3019201A9
:1021C0000E94D435D801D2966D937D938D939C93C4
:1021D000D59713C0F601208D318D428D538DD801D6
:1021E000D2966D917D918D919C91D5970E94D43519
:1021F000F80162AB73AB84AB95ABFFEFEF1AFF0A4C
:1022000024E0C20ED11C0C5F1F4F34E0A30EB11CA2
:1022100044E0E416F10409F097CF6DCF64EF71E06C
:1022200087E00E94BC28882311F40C9482198EA1A7
:10223000811103C018AE1AA62AC0A8E9B1E0E4EEE5
:10224000F1E080E090E04EA1242F30E0A901082EBB
:1022500002C0559547950A94E2F740FD0AC058968A
:102260004D915D916D917C915B97408B518B628B11
:10227000738B0196149634968430910539F706C015
:102280008091E501823010F00C94701918AE8091A5
:10229000E5018AAB803529F49EA191110C94721945
:1022A00083C2AAA5A23009F07FC2BAA9B11104C0A5
:1022B000EEA1E11179C22BC020E030E0A9016091CC
:1022C000F0017091F1018091F2019091F3010E946F
:1022D000C936882311F40C947419FAA9FC3809F44E
:1022E0004DC240F4F230A9F0F330B1F0F13009F012
:1022F0005BC20AC02AA92E3809F440C208F43BC2C6
:102300002F3809F438C250C23EA131114DC21AA66D
:102310004BC24EA544604EA78EA1882309F4E8CD98
:1023200023969FAD2397092F10E02596BFAD2597E3
:10233000AB2FB0E0BFAFAEAF81E090E07C01239661
:102340000FAC239702C0EE0CFF1C0A94E2F725960F
:102350000FAC259702C0880F991F0A94E2F7E82A6C
:10236000F92AEEA18E2F90E08E219F21892B09F46E
:10237000BDC7F801EE0FFF1FEE0FFF1FEC51FE4F20
:10238000D801AA0FBB1FAA0FBB1FA055BE4F2D918E
:102390003D914D915C9162A973A984A995A90E9470
:1023A000D3352B013C01EEADFFADEE0FFF1FEE0F5D
:1023B000FF1FEC51FE4FAEADBFADAA0FBB1FAA0F62
:1023C000BB1FA055BE4F2D913D914D915C9162A9CF
:1023D00073A984A995A90E94D3354B015C016101C1
:1023E000F0E8CF22DD2427FEF3C0E89427F840E18F
:1023F00050E066E172E080EB91E00E94963A892B12
:1024000011F481E293C78091E7018130B1F423E3B5
:1024100033E34BEC51E460910D0270910E02809118
:102420000F02909110020E942B3960930D0270935D
:102430000E0280930F029093100280910D029091F2
:102440000E02A0910F02B09110028CAB9DABAEAB0F
:10245000BFABA3019201C301B2010E942B39609668
:102460006CAF7DAF8EAF9FAF6097A5019401C501A2
:10247000B4010E942B3964966CAF7DAF8EAF9FAFD5
:10248000649720E030E040E850E46CA97DA98EA973
:102490009FA90E942B392CA93DA94EA95FA90E9492
:1024A0002B3960962CAD3DAD4EAD5FAD60970E946F
:1024B000D33564962CAD3DAD4EAD5FAD64970E94B3
:1024C000D3356B017C0120E030E0A9010E94C936C0
:1024D00087FD0EC7C701B6010E94CA396B017C0196
:1024E00064962CAD3DAD4EAD5FAD649760966CAD1E
:1024F0007DAD8EAD9FAD60970E94D4350E94CA39E4
:102500009B01AC01C701B60190580E94D3366B0104
:102510007C019AA9933021F4F7FAF094F7F8F0943B
:1025200020E030E0A9016CA97DA98EA99FA90E9495
:10253000C93687FF11C0F7FAF094F7F8F0948CA928
:102540009DA9AEA9BFA9B05880930D0290930E0229
:10255000A0930F02B0931002000F111F000F111F64
:102560000C501E4FA7019601C501B4010E942B39E2
:102570009B01AC01C301B2010E94D33520E030E0E1
:1025800040E05FE30E942B39D8016D937D938D93DA
:102590009C9313970EAD1FAD000F111F000F111F5D
:1025A0000C501E4FA7019601C301B2010E942B39A6
:1025B000A50194010E94D43520E030E040E05FE3C3
:1025C0000E942B39F8016083718382839383ECC06E
:1025D0003CA9232F30E03DAB2CABE222F322EF28C5
:1025E00009F488C641EF24228091E701813009F483
:1025F0007AC0F801EE0FFF1FEE0FFF1FEC50FE4FE9
:10260000C080D180E280F380A7019601C301B201AE
:102610000E94D3352B013C01EEADFFADEE0FFF1F45
:10262000EE0FFF1FEC50FE4F80819181A281B3819C
:102630008CAB9DABAEABBFAB9C01AD01C501B40192
:102640000E94D3354B015C01A3019201C301B20189
:102650000E942B392B013C01A5019401C501B40155
:102660000E942B399B01AC01C301B2010E94D435F9
:102670000E94CA394B015C01A7019601C701B6014E
:102680000E942B396B017C012CA93DA94EA95FA9A1
:10269000CA01B9010E942B399B01AC01C701B601E7
:1026A0000E94D4350E94CA396B017C0160930D02EF
:1026B00070930E0280930F02909310029B01AC0165
:1026C000C501B4010E94D3354B015C01E894B7F811
:1026D0002AE037ED43EA5BE3C501B4010E94EB3821
:1026E000181664F161C094EEE92E91E0F92E8CA9E0
:1026F0009DA90C2C02C0959587950A94E2F780FF5E
:1027000012C023E333E34BEC51E4D70150966D91B3
:102710007D918D919C9153970E942B39F701608B8D
:10272000718B828B938BFFEFCF1ADF0A24E0E20ECE
:10273000F11C34E0C316D104D1F65BCF20E030E0C9
:1027400040E05FE3C501B4010E94EB3818160CF4B9
:1027500058CE2FE632E143E85AE3C701B6010E94A2
:102760002B399B01AC01C501B4010E94EB3818164E
:102770000CF447CE19C04EA540614EA78AA98E58C9
:10278000823018F48EA588608EA79EA1992309F443
:10279000AFCB40E150E066E172E080EB91E00E9457
:1027A000963A892B09F42DCE2EA52170AEA5C10134
:1027B000A0FF02C08E7D02C08E7D9C7FBAA5B111A4
:1027C000937C892B09F098C58E010F5E1F4F89E01D
:1027D000F80111928A95E9F7222309F44BC08AADDA
:1027E0009BAD867B892B09F089C58091E4018533F7
:1027F00011F0811183C58091A3019091A401A09152
:10280000A501B091A6018D8B9E8BAF8BB88F909157
:10281000A1018091A001892B4091F0015091F1011B
:102820006091F2017091F301498B5A8B6B8B7C8B19
:102830008460898F8091880185FF06C086E192E0DF
:102840000E94372181115CC5B80186E192E00E94A7
:10285000210280912201811157C50E948126892B76
:1028600009F452C580E2809322010E9464290E94EB
:102870009B1C4AC580918801F090A10181FF26C070
:102880008AA98150833018F0FEA5F064FEA72EA11E
:10289000222339F03AA5323021F44EA540684EA7E4
:1028A00015C080E1F81212C08091980181509EA558
:1028B0009074833030F4992349F09EA590629EA7CE
:1028C00005C0911103C0AEA5A062AEA7809105021C
:1028D00090910602A0910702B09108028093AC018A
:1028E0009093AD01A093AE01B093AF018091E6014A
:1028F00080939901882311F088E0898F8091F001FD
:102900009091F101A091F201B091F3018093A701A0
:102910009093A801A093A901B093AA01898B9A8BE7
:10292000AB8BBC8B8090110290901202A09013028E
:10293000B0901402A50194016091A3017091A401CB
:102940008091A5019091A6010E94C936BEA5B074E0
:10295000EB2E811103C0EEA5E5FF20C0FF2071F032
:10296000FEA5F7FD0BC0EE2021F040E050E0BA01DB
:1029700002C0B501A4018F2D0E942934809111025B
:1029800090911202A0911302B09114028093A301BE
:102990009093A401A093A501B093A601E1100CC0EF
:1029A0008091A3019091A401A091A501B091A601ED
:1029B0008D8B9E8BAF8BB88F809115028093AB016E
:1029C0008091EE019091A101981751F04D895E8997
:1029D0006F89788D0E9429348091EE018093A10146
:1029E000998D8091A101892B898FF090ED018091C3
:1029F000A0018F1569F080912201823029F00E9498
:102A000018348F2D0E941B328091ED018093A0011C
:102A1000998D8091A001892B898F8091E401843068
:102A200099F4C0900902D0900A02E0900B02F09055
:102A30000C0280912201823039F00E94183440E06B
:102A4000C701B6010E94CE258091E90180939C01C7
:102A50008091E70180939A012AA5233071F5809136
:102A6000EA0180939D01811108C010921E0210920C
:102A70001F021092200210922102C0901E02D090DC
:102A80001F02E0902002F0902102A70196016091C0
:102A9000E0017091E1018091E2019091E3010E94D7
:102AA000C936882351F0C092E001D092E101E09252
:102AB000E201F092E3010E94AE218091EB0190913E
:102AC0009E01981769F080939E0180E1FE01319686
:102AD000A0ECB1E001900D928A95E1F70E94AE2141
:102AE0008091E80180939B018091E4018632F1F1AD
:102AF00038F48C3109F18E31F9F08A3069F04FC029
:102B00008C35D1F1863609F441C0883209F047C0CE
:102B100060EB71E087E02DC064EF71E088AD0E944A
:102B2000A82880919E0138AD381339C080E1E4EFC8
:102B3000F1E0A0ECB1E025C0898D8160898F4AA5C4
:102B4000442329F0B80186E192E00E942102B801F5
:102B500084EF91E00E94210280E1E4EFF1E0A0EB3C
:102B6000B1E001900D928A95E1F719C060EB71E038
:102B700086E00E94A82813C080E1E6E1F2E0A0ED23
:102B8000B1E001900D928A95E1F707C080E1E0ED98
:102B9000F1E0DF011D928A95E9F70E94AE21809154
:102BA000E50180939801803509F43AC3BAA5B230A3
:102BB00009F036C3813021F4BE016F5E7F4F06C03D
:102BC000811109C0898D8160898FB80186E192E009
:102BD0000E9421021CC38250823008F0B1C2809151
:102BE0000D0290910E02A0910F02B09110028AA7DF
:102BF0009BA7ACA7BDA72396AFAD239794E0A99F51
:102C000070011124F701E055FE4FFBABEAAB9701D1
:102C10002C503E4F39AF28AFD9014D905D906D904B
:102C20007C902081318142815381C301B2010E9495
:102C3000D4356AAF7BAF8CAF9DAF2596EFAD2597AE
:102C4000B4E0EB9F80011124980120553E4F3DAB2D
:102C50002CABC8018C509E4F24969FAF8EAF24970B
:102C6000DC018D909D90AD90BC90F9012081318167
:102C700042815381C501B4010E94D43528966CAFBE
:102C80007DAF8EAF9FAF289777FA709477F87094E6
:102C9000D501C401B0588EA39FA3A8A7B9A7F70177
:102CA000EA5EFD4F2AAD3BAD4CAD5DAD60817181FB
:102CB000828193810E94D3356B017C01F801EA5E29
:102CC000FD4F28962CAD3DAD4EAD5FAD2897608190
:102CD0007181828193810E94D3354B015C01A701F0
:102CE0009601C301B2010E942B3922966CAF7DAFD1
:102CF0008EAF9FAF2297A50194016EA17FA188A5F9
:102D000099A50E942B399B01AC0122966CAD7DAD3B
:102D10008EAD9FAD22970E94D43522966CAF7DAFC9
:102D20008EAF9FAF2297A5019401C301B2010E940B
:102D30002B394B015C01A70196016EA17FA188A5EB
:102D400099A50E942B399B01AC01C501B4010E94D9
:102D5000D33522962CAD3DAD4EAD5FAD22970E948E
:102D600053366B017C019EA592FF13C02DEB37E318
:102D700046E055EBC701B6010E94EB3887FD1DC048
:102D80002BED3FE049EC50E4C701B6010E94D3357A
:102D900012C02DEB37E346E055E3C701B6010E94B0
:102DA000C936181654F02BED3FE049EC50E4C7014A
:102DB000B6010E94D4356B017C0180907C0190901B
:102DC0007D01A0907E01B0907F012AA53BA54CA576
:102DD0005DA5CA01B9010E94D435A50194010E94E4
:102DE000D335A50194010E942B390E94CA394B01A9
:102DF0005C0120E030E040E05FE3C701B6010E94E3
:102E00002B392AA53BA54CA55DA50E942B399F77A0
:102E1000A50194010E94D3360E94B8370E944C3716
:102E20007FAF6EAFDB01AB2B09F4C6CE198D4B0122
:102E3000A12CB12C13FF12C0C501B4010E947B3735
:102E40009B01AC0169897A898B899C890E942B3905
:102E5000698B7A8B8B8B9C8B177F198FC501B40183
:102E60000E947B374B015C019B01AC01C701B6019D
:102E70000E94D3366EA77FA788AB99AB2996EFAD9A
:102E80002997B4E0EB9FC00111248C0100551E4F1F
:102E9000FC01EA5EFD4FD8012D913D914D915C9171
:102EA00060817181828193810E94D335A501940153
:102EB0000E94D33664966CAF7DAF8EAF9FAF6497A0
:102EC0002EA53FA548A959A9CA01B9010E942B39CD
:102ED0009B01AC0160E070E080E090E40E94D3359B
:102EE0006B017C012BEA3AEA4AE25EE36EA57FA51C
:102EF00088A999A90E942B394B015C0120E030E0A0
:102F000040E850E4C701B6010E94D4359B01AC01F2
:102F1000C501B4010E942B392C966CAF7DAF8EAFEA
:102F20009FAF2C9720E030E040E05FE3C701B6019F
:102F30000E942B3960966CAF7DAF8EAF9FAF6097CC
:102F40001AA622242394312CEEADFFADE215F30531
:102F500009F432CEBAA5BC3008F048C02EA13FA17A
:102F600048A559A560966CAD7DAD8EAD9FAD6097BF
:102F70000E942B396B017C01A30192012C966CAD50
:102F80007DAD8EAD9FAD2C970E942B39A701960188
:102F90000E94D4357B016C01A301920160966CAD57
:102FA0007DAD8EAD9FAD60970E942B394B015C01CA
:102FB0002EA13FA148A559A52C966CAD7DAD8EAD37
:102FC0009FAD2C970E942B399B01AC01C501B40128
:102FD0000E94D3352B013C01EAA5EF5FEAA7470128
:102FE00056018EA29FA2A8A6B9A667C0B10180E033
:102FF00090E00E947B372EA53FA548A959A90E94C1
:103000002B396B017C010E94CE366EA37FA388A76B
:1030100099A7C701B6010E94BC394B015C01A8AD5C
:10302000B9ADCD90DD90ED90FC90F7FAF094F7F803
:10303000F0942496AEADBFAD24978D919D910D90E7
:10304000BC91A02D8AA79BA7ACA7BDA7A7019601FD
:103050006EA17FA188A599A50E942B392B013C0167
:103060002AA53BA54CA55DA5C501B4010E942B393D
:103070009B01AC01C301B2010E94D4352B013C017C
:10308000A7019601C501B4010E942B396B017C0197
:103090002AA53BA54CA55DA56EA17FA188A599A5F4
:1030A0000E942B399B01AC01C701B6010E94D335A8
:1030B0006EA37FA388A799A71AA6A30192016AAD60
:1030C0007BAD8CAD9DAD0E94D435EAA9FBA9608390
:1030D0007183828393832EA13FA148A559A5289689
:1030E0006CAD7DAD8EAD9FAD28970E94D435ACA957
:1030F000BDA96D937D938D939C93139764962CAD8E
:103100003DAD4EAD5FAD6497F80160817181828104
:1031100093810E94D435D8016D937D938D939C93B8
:103120001397BE016F5E7F4F80EB91E00E942102FA
:103130008091230181116BC0BFEF2B1A3B0A04CF92
:10314000898D8460898F80912201823009F45FC06B
:103150000E94183480912301811162C0FEA5F07194
:10316000FF2E109227012EA523FB882780F90E94AD
:10317000FF2186B1807490910001891749F084E0A5
:103180000E941E210E94063380E00E94FF2148C059
:10319000B80186E192E00E94210281E08093110152
:1031A00082E00E942E210E9406338091230181112A
:1031B00037C0809122018111F6CF809111018130B9
:1031C00081F4FF2051F080E1E2E1F1E0A1E0B1E023
:1031D00001900D928A95E1F707C085E00E941E21BB
:1031E00003C081E0809327011092110180E00E94CA
:1031F000FF210E9406330E947B310E9491260E948B
:10320000FD250E947D248091270181118CC080E1E1
:10321000E6E1F2E0A0EBB1E001900D928A95E1F7D2
:103220008091EC0180939F01882309F47FC00E9464
:10323000183480919F0190912201833041F49230A3
:10324000D1F188E00E942E210E94063334C081E033
:103250008093980110929C0110929B011092990109
:1032600010929E011092A1011092A00184E6809319
:10327000290180932A0180932B01923091F060EC18
:1032800071E080E00E94BC288823E1F10E94AE2119
:1032900040E050E0BA0180E00E94E23280E00E940B
:1032A0001B328BEA92E00E940B2382E492E00E94A0
:1032B0000B230E94782410929F012FC081E036C01A
:1032C00082E034C088E132C086E230C089E12EC09D
:1032D00084E02CC08BE12AC085E228C084E126C0AE
:1032E0008EE124C08FE122C086E120C080E21EC0B2
:1032F00082E21CC083E21AC084E218C080E116C0DA
:103300008FE014C087E012C080E1E6E1F2E0A0EBBC
:10331000B1E001900D928A95E1F780E007C01DA20F
:103320001EA60C94A10B0E9473347ACFCD5ADF4FA6
:103330000FB6F894DEBF0FBECDBFDF91CF911F91C6
:103340000F91FF90EF90DF90CF90BF90AF909F9044
:103350008F907F906F905F904F903F902F90089547
:1033600080916F008D7F80936F0080918100887FB6
:103370008160809381001092B605809176019091D2
:1033800022018F3F39F42091B105211103C09038FB
:1033900081F402C0943069F090E0009741F0EFE9C9
:1033A000FFE03197F1F700C000000197F6CF81E010
:1033B00001C080E09091880192FF02C091E08927CE
:1033C000882311F05F9A08955F9808951F920F92D5
:1033D0000FB60F9211242F933F934F935F936F93E8
:1033E0007F938F939F93AF93BF93EF93FF938091BE
:1033F000B60581118FC285B19091CA059771887EFB
:10340000892B85B98BB19091C9059C778378892BDD
:103410008BB98091C80586BD82E085BD81E080932F
:10342000B60578948091E0059091E105892B09F02B
:10343000D7C08091E20590910D06981709F4BCC0A1
:10344000E091E2052E2F30E087E0E89FF0011124A3
:10345000ED51FA4FF093E105E093E005828193810D
:103460009093890080938800808191819093DC05FE
:103470008093DB05E4818091DD058E17A1F1E09357
:10348000DD0586E1E89FF0011124E25FF94FF0933A
:10349000DF05E093DE0580899189A289B389B6951D
:1034A000A795979587958093C3059093C405A0939E
:1034B000C505B093C6058093BF059093C005A09342
:1034C000C105B093C2058093BB059093BC05A09342
:1034D000BD05B093BE058093B7059093B805A09342
:1034E000B905B093BA05E091DE05F091DF05948946
:1034F0008091B50589278093CA0587E0829FD00116
:10350000839FB00D1124AD51BA4F15968C9115972C
:103510004081518162817381082E04C07695679540
:10352000579547950A94D2F74093CB055093CC0515
:103530006093CD057093CE05448155816681778176
:10354000082E04C076956795579547950A94D2F74B
:103550004093CF055093D0056093D1057093D20569
:103560004085518562857385082E04C076956795E0
:10357000579547950A94D2F74093D3055093D405B5
:103580006093D5057093D605448555856685778506
:1035900004C076956795579547958A95D2F74093DD
:1035A000D7055093D8056093D9057093DA05169620
:1035B0008C910E94D43214C00E94B019E091DE05B3
:1035C000F091DF058589882339F01092B30080914E
:1035D000B0008F778093B00084E00E942E219AC1C2
:1035E000809111018130B1F486B180749091000115
:1035F000891781F01092110180E1E2E1F1E0A1E090
:10360000B1E001900D928A95E1F78091B005806458
:103610008093B0051092C9054091B7055091B80547
:103620006091B9057091BA058091CB059091CC0558
:10363000A091CD05B091CE05840F951FA61FB71F91
:103640008093B7059093B805A093B905B093BA05D8
:10365000E091DE05F091DF05408951896289738927
:10366000481759076A077B0768F524E02093C905C6
:103670004089518962897389841B950BA60BB70B0E
:103680008093B7059093B805A093B905B093BA0598
:1036900024898091120190911301A0911401B0919D
:1036A000150120FF04C00197A109B10903C00196CB
:1036B000A11DB11D8093120190931301A0931401D9
:1036C000B09315014091BB055091BC056091BD05BB
:1036D0007091BE058091CF059091D005A091D10544
:1036E000B091D205840F951FA61FB71F8093BB050D
:1036F0009093BC05A093BD05B093BE054089518948
:1037000062897389481759076A077B0778F5209102
:10371000C90528612093C905408951896289738947
:10372000841B950BA60BB70B8093BB059093BC0530
:10373000A093BD05B093BE05248980911601909198
:103740001701A0911801B091190121FF04C0019740
:10375000A109B10903C00196A11DB11D80931601F5
:1037600090931701A0931801B09319014091BF05E0
:103770005091C0056091C1057091C2058091D3053B
:103780009091D405A091D505B091D605840F951FD1
:10379000A61FB71F8093BF059093C005A093C105D6
:1037A000B093C205408951896289738948175907C6
:1037B0006A077B0778F52091C90520622093C90527
:1037C0004089518962897389841B950BA60BB70BBD
:1037D0008093BF059093C005A093C105B093C20527
:1037E000248980911A0190911B01A0911C01B09134
:1037F0001D0122FF04C00197A109B10903C0019670
:10380000A11DB11D80931A0190931B01A0931C016F
:10381000B0931D014091C3055091C4056091C50549
:103820007091C6058091D7059091D805A091D905D2
:10383000B091DA05840F951FA61FB71F8093C305AB
:103840009093C405A093C505B093C60540895189DE
:1038500062897389481759076A077B0778F52091B1
:10386000C90520642093C9054089518962897389FB
:10387000841B950BA60BB70B8093C3059093C405CF
:10388000A093C505B093C605248980911E0190912F
:103890001F01A0912001B091210124FF04C00197D4
:1038A000A109B10903C00196A11DB11D80931E019C
:1038B00090931F01A0932001B093210180912201D8
:1038C000843039F49091C90580912801892380932F
:1038D000C9058091DB059091DC0501979093DC058B
:1038E0008093DB05892B69F41092E1051092E005C5
:1038F0008091E2058F5F8093E205863011F410928B
:10390000E2059091C9058091B40589278093C90586
:103910001092B605FF91EF91BF91AF919F918F915A
:103920007F916F915F914F913F912F910F900FBEBB
:103930000F901F9018958091880182FF02C05F9AB6
:1039400001C05F988091B4058093C905809173018F
:10395000880F845081958093C80580916F008260A4
:1039600080936F0008953F924F925F926F927F9283
:103970008F929F92AF92BF92CF92DF92EF92FF927F
:103980000F931F93CF93DF93CDB7DEB7E0970FB6BA
:10399000F894DEBF0FBECDBF1091B1051123C9F160
:1039A00081E080932201123029F489E193E00E94A2
:1039B0000B2307C082E193E00E940B23812F0E941A
:1039C000E5220E941A2385EF91E0019739F0EFE993
:1039D000FFE03197F1F700C00000F7CF115012302F
:1039E00030F08FB7F8941092B1058FBF12C08BEAF8
:1039F00092E00E940B2389E992E00E940B230E942F
:103A0000782480E10E9424218091B00584FFFCCFBE
:103A1000E8CF1091B005112309F4B4C214FF04C01B
:103A200081E080932301D3C310FFB8C180E1E2E1BC
:103A3000F1E0DE01919601900D928A95E1F7BE01C9
:103A40006F5D7F4FCE0141960E9472218CE30E94F0
:103A5000FF31809122018830E1F058F4813099F1F2
:103A6000A8F0823099F1843009F043C087E893E0F0
:103A70003EC0803229F118F4803171F03AC08034B0
:103A800041F18038B1F58FE693E031C08AE993E0E7
:103A90002EC086E993E02BC08091240187FD10C0E1
:103AA00080E993E00E940B238091240180FF06C0EF
:103AB00080E31AC082FF17C085FFFACF81E314C0EC
:103AC0008CE893E014C081E893E011C08BE793E0A9
:103AD0000EC085E793E00E940B238091240183FFB1
:103AE000E9CF83E301C082E30E94FF3102C00E945C
:103AF0000B2380917701F82FF170BF2E80FF07C054
:103B000080912E01882319F088E693E053C04090FD
:103B1000E0015090E1016090E2017090E30140EC1F
:103B2000842E41E0942E9E012F5F3F4F7901CE01FC
:103B300041966C0101E0F401619171918191919143
:103B40004F0124853585468557850E94D435F70178
:103B50006083718382839383033099F4A30192017C
:103B60000E94D435F7016083718382839383BB20E5
:103B700051F094E0E90EF11C0F5FE4E0CE0ED11C91
:103B8000DACFB11011C0F701208131814281538118
:103B9000F60160817181828193810E94D335F601A3
:103BA0006083718382839383043019F7B110ACCFA3
:103BB00081E693E00E940B23CE0141960E94CC2225
:103BC0008091770181FF1FC08CE593E00E940B2359
:103BD00090918B0580918A05981710F0815F01C044
:103BE0008150891B0E94E5228CE20E94FF31809166
:103BF000270290912602981710F0805801C081503A
:103C0000891B0E94E52287E593E00E940B238091A7
:103C100022018C7749F0609193067091940680910F
:103C200095069091960603C060E070E0CB010E947B
:103C3000AE228CE20E94FF3160912F017091300121
:103C4000809131019091320140E00E9411220E9446
:103C5000D624F82E0E94B321082F86B1982F907495
:103C600080910001E92EE8268F2D802B8E2959F1B5
:103C700082E593E00E940B23EE2019F080E50E947C
:103C8000FF31FF2079F0F0FE03C088E50E94FF318C
:103C9000F1FE03C089E50E94FF31F2FE03C08AE510
:103CA0000E94FF31002379F000FF03C082E50E94EB
:103CB000FF3101FF03C088E40E94FF3102FF03C00F
:103CC00083E50E94FF3180912E01882321F08150ED
:103CD00080932E0118C0809122018C7711F08DE124
:103CE00001C089E080932E0180912D01811103C0D4
:103CF00081E080932D018CE493E00E940B23CE01A0
:103D000001960E94CC2280912D01882321F08150C0
:103D100080932D013BC0809122018C7711F083E1CB
:103D200001C089E080932D0187E493E00E940B237A
:103D3000809129010E94E5228CE20E94FF3180914E
:103D40002A010E94E5228CE20E94FF3180912B0122
:103D50000E94E52208B108700E942F32F82E01114E
:103D600002C0882399F083E493E00E940B23002390
:103D700019F083E50E94FF31F6FE03C086E40E943D
:103D8000FF31F7FE03C08DE40E94FF318EE30E94F5
:103D9000FF310E941A2381E00E942421812F887E16
:103DA00009F467C080912201982F937009F050C0E8
:103DB0008872A1F080912401807C81F40E941631E8
:103DC00082E08093260180912201803239F417FD30
:103DD000FCC180912401806880932401809122019C
:103DE000811103C091E09093240116FF07C085FD67
:103DF00005C09091240190649093240113FF05C0A5
:103E0000807E19F480E18093220115FF21C08BEAA6
:103E100092E00E940B2387E592E00E940B230E9410
:103E200078248091240187FD0EC090912201903466
:103E300039F483FFC6C1837E826080932401C1C1AF
:103E4000903809F0BEC180912401806280932401E2
:103E500017FF0CC080912201813029F48091240148
:103E600085608093240180E88093220188EE0E947F
:103E7000242111FF44C0812F8876F1F58091220121
:103E8000803471F48091240185FD0AC084FF03C051
:103E90001092220105C082FF03C088608093240134
:103EA00080912201882381F084FF26C09091240113
:103EB00090FF22C0803141F480912C01882321F0B1
:103EC000886080932C0118C0109226010E948126E0
:103ED000892B71F08091240186FD0AC01092240183
:103EE00088E0809322010E9464290E949B1C04C0E8
:103EF000109224011092220182E00E94242112FFDC
:103F000041C080912201807D909124018823D9F0C5
:103F100080912501811117C097FD15C00E941631AF
:103F200080918A05809328020E94A2268091260112
:103F300081FF05C090912401916090932401897FB5
:103F4000809326011CC097FF0AC0109226010E9490
:103F500091260E947B310E9473340E94FD2580913E
:103F6000240185FF08C08F7781608093240180E45D
:103F70008093220104C0109224011092220184E057
:103F80000E9424219091B205992309F4ABC08FB708
:103F9000F8941092B2058FBF4091290190FD02C0A4
:103FA000842F01C084E691FD865F92FD8A5093FDC7
:103FB0008F5F94FD8150893C08F088EC8A3008F4CA
:103FC0008AE030912A0195FD02C0232F01C024E62A
:103FD00096FD22E397FD29E1481303C0231709F456
:103FE00081C08093290120932A0110922D01109104
:103FF0008A0530908B0589E9D82E96E7E92E26E9C7
:10400000F22E0EE736E3432E131509F457C0812E26
:10401000912C489CC001499C900D11249C01265D67
:104020003D4F5901C9010E940E26562E672E782E4B
:10403000C92E2D2D3E2D4F2D502F0E94EB381816D6
:104040004CF42D2D3E2D4F2D502F6D2D7E2D8F2D6F
:10405000902F08C0252D362D472D5C2D652D762DF2
:10406000872D9C2D0E942B39F501628F738F848FD1
:10407000958F489CC001499C900D11249C01265DA0
:104080003D4F7901F90186A097A0A0A4B1A4A50194
:104090009401628D738D848D958D0E94EB38181676
:1040A0002CF4F701828E938EA48EB58E1F5F103193
:1040B00009F410E0D52C73010C2DA6CF8D2D9E2D6B
:1040C000AF2DB02F8093AC059093AD05A093AE05B6
:1040D000B093AF050E94163180918A058093280223
:1040E0000E94A2260091B305002309F463C08FB794
:1040F000F8941092B3058FBF90912B0100FD02C080
:10410000892F01C084E601FD865F02FD8A5003FD10
:104110008F5F04FD8150893C08F088EC8A3008F4F8
:104120008AE09817D1F080932B01809122018111B0
:104130000DC04091A3015091A4016091A50170911F
:10414000A6018091A1010E94E23205C08091260162
:1041500088608093260110922D018091220105FF35
:104160000DC0803159F490912C01911102C092E060
:1041700003C090FF03C0946090932C01902F907C1B
:10418000C9F0882311F08873A9F01091A00107FFEE
:1041900005C017FF02C01F7701C0106806FF05C0E9
:1041A00016FF02C01F7B01C01064812F0E941B32CA
:1041B0001093A001809122018C7F49F00E94642914
:1041C00006C080E4809322013ECE80E20ECEE096CF
:1041D0000FB6F894DEBF0FBECDBFDF91CF911F9118
:1041E0000F91FF90EF90DF90CF90BF90AF909F9096
:1041F0008F907F906F905F904F903F900895CF93F6
:10420000DF93C1EAD7E08991882319F00E94FF313A
:10421000FACFDF91CF9108959FB7F8942091B3051D
:10422000822B8093B3059FBF08959FB7F894209188
:10423000B205822B8093B2059FBF08959FB7F89473
:104240008093B1059FBF08952FB7F8949091B00562
:10425000809589238093B0052FBF08959FB7F89468
:104260002091B005822B8093B0059FBF0895AF9237
:10427000BF92CF92DF92EF92FF920F931F93CF9353
:10428000DF93EC0103E611E05C018CE0A80EB11CA9
:10429000C990D990E990F99020E030E0A901C701D8
:1042A000B6010E94EB3818168CF0F801219131917B
:1042B000419151918F01C701B6010E94C93687FD16
:1042C00005C0CA15DB0521F780E001C081E0DF9160
:1042D000CF911F910F91FF90EF90DF90CF90BF9003
:1042E000AF9008958F929F92AF92BF92CF92DF923C
:1042F000EF92FF920F931F93CF93DF93EB0123E392
:10430000E22E21E0F22E8C016B0180E1C80ED11C5F
:104310006991799189919991F70181909190A190FA
:10432000B1907F010E947D37A50194010E94D33690
:10433000F80161937193819391938F01CC15DD0501
:1043400039F7DF91CF911F910F91FF90EF90DF90A0
:10435000CF90BF90AF909F908F9008950E94183497
:1043600010922E01089596B19095892F877059F07B
:1043700091FF02C082E001C080E090FD816092FF69
:1043800003C08460089580E008951F920F920FB6D5
:104390000F9211242F933F934F935F936F937F93CB
:1043A0008F939F93AF93BF93CF93EF93FF930E940D
:1043B000B321C82F882389F080FD0E947934C2FF81
:1043C00005C08091B00582608093B005C1FF05C033
:1043D0008091B00588608093B005FF91EF91CF91F7
:1043E000BF91AF919F918F917F916F915F914F910D
:1043F0003F912F910F900FBE0F901F901895109224
:1044000000019091880197FD03C090E49093000112
:10441000882331F09091000180E489278093000186
:1044200008958F929F92AF92BF92CF92DF92EF92B8
:10443000FF920F931F93CF93DF93CDB7DEB72D97E6
:104440000FB6F894DEBF0FBECDBF6B017C01042F09
:1044500020E030E0A9010E94C93687FF07C08DE245
:104460000E94FF31F7FAF094F7F8F094102F123011
:1044700060F020E030E048EC52E4C701B6010E9451
:104480002B396B017C011250F2CF00FF0AC020E0F3
:1044900030E040E251E4C701B6010E942B396B01C4
:1044A0007C0120E030E040E05FE3C701B6010E94FC
:1044B000D4350E94453710E03AE0832E912CA12C90
:1044C000B12C611571058105910591F0EE24E394FD
:1044D000F12CEC0EFD1EE10EF11CA50194010E94D1
:1044E000543A605DF7016083B901CA011F5FE9CFEB
:1044F00080E3101748F4E1E0F0E0EC0FFD1FE10F5E
:10450000F11D80831F5FF5CF101313C0FE01E10F73
:10451000F11D80E381831F5F0CC0101303C08EE286
:104520000E94FF31FE01E10FF11D80810E94FF31E9
:1045300011501111F2CF2D960FB6F894DEBF0FBEB9
:10454000CDBFDF91CF911F910F91FF90EF90DF9042
:10455000CF90BF90AF909F908F9008952091880149
:1045600020FF08C02BE832E441E25DE30E942B39D2
:1045700041E001C040E00C9411222091880120FF0D
:1045800008C02BE832E441E25DE30E942B3944E0AD
:1045900001C043E00C9411220F931F93CF938C0121
:1045A000C0E0F80161917191819191918F010E9418
:1045B000BD22C33019F08CE20E94FF31CF5FC430BE
:1045C00081F7CF911F910F910895CF93DF93843698
:1045D00030F06AE00E94343AC0E3C90F03C0C0E083
:1045E0008A3030F06AE00E94343AD0E3D90F01C03B
:1045F000D0E0805D0E94FF31DD2319F08D2F0E94F5
:10460000FF31CC2329F08C2FDF91CF910C94FF3117
:10461000DF91CF910895CF93DF93FC018491EF0157
:104620002196882321F00E94FF31FE01F7CFDF9110
:10463000CF91089584E094E00C940B23CF93C82F7E
:1046400082E194E00E940B238C2F0E94E522CF91FF
:104650000C941A23811104C087E094E00C940B237E
:104660000C941E23CF92DF92EF92FF92CF93DF93B1
:10467000D82F6A017B01C22F84E20E94FF318D2F67
:104680000E94E5228DE30E94FF314C2FC701B60145
:104690000E941122DF91CF91FF90EF90DF90CF9099
:1046A0000C941A23CF93DF93D82FC62F84E20E9455
:1046B000FF318D2F0E94E5228DE30E94FF318C2F68
:1046C0000E94E522DF91CF910C941A23EF92FF9282
:1046D0000F931F93CF93DF936091730170E080E09D
:1046E0000E9452236091760170E081E00E94522383
:1046F0006091740170E082E00E9452236091750124
:1047000070E083E00E9452236091880162FB66277B
:1047100060F970E084E00E9452236091880166FB9A
:10472000662760F970E085E00E945223809188013D
:10473000082E000C990B692F661F6627661F70E014
:1047400086E00E9452236091770170E08AE00E9427
:104750005223409178015091790160917A017091D2
:104760007B0123E08BE00E94322340917C01509139
:104770007D0160917E0170917F0123E08CE00E94B9
:10478000322360918801617070E08DE00E945223B5
:104790006091880165FB662760F970E084E10E9402
:1047A00052236091880163FB662760F970E085E120
:1047B0000E945223609188016295617070E086E1E9
:1047C0000E9452236091890170E087E10E94522388
:1047D00040918A0150918B0160918C0170918D0103
:1047E00023E088E10E94322340918E0150918F0195
:1047F000609190017091910123E089E10E94322340
:1048000060919201709193018AE10E94522340913C
:10481000940150919501609196017091970123E068
:104820008BE10E943223409180015091810160917F
:1048300082017091830120E08EE10E943223409139
:10484000840150918501609186017091870120E07B
:104850008FE10E943223609188016695617070E05B
:1048600080E20E945223D4E6F12C03E311E084E0BD
:10487000E82EED0ECD2F82E0F81691F0E3E0FE1663
:10488000E9F0F1E0FF1631F0F801408151816281D9
:1048900073811AC0F801408951896289738914C0F3
:1048A00020E030E041E655E4F80160A171A182A169
:1048B00093A10E94D336AB01BC0106C0F80140A908
:1048C00051A962A973A9705823E08C2F0E9432234A
:1048D0000C5F1F4FCF5FEC12CECFD65FF394DC3866
:1048E00021F6DF91CF911F910F91FF90EF900895E6
:1048F0008DE50E94FF310C941A23CF93DF93CDB73F
:10490000DEB760970FB6F894DEBF0FBECDBF8CE068
:1049100094E00E940B2361E071E0CE0101960E94B9
:104920007221CE0101960E94CC228AE30E94FF31BF
:10493000809127010E94E5220E94782460960FB69C
:10494000F894DEBF0FBECDBFDF91CF9108951F92C7
:104950000F920FB60F9211242F933F934F935F93B3
:104960006F937F938F939F93AF93BF93EF93FF9337
:1049700080912201813049F08091B105811105C0FB
:104980000E94793481E00E941E21FF91EF91BF9136
:10499000AF919F918F917F916F915F914F913F91D7
:1049A0002F910F900FBE0F901F90189593B190729A
:1049B0008091880186FD02C080E298279923A9F0A2
:1049C00020E030E080E0907241E050E0992339F03F
:1049D000BA01022E01C0660F0A94EAF7862B2F5FF8
:1049E0003F4F2430310591F7089580E008952598D0
:1049F0002D9A8091880183FF09C080916B008062AD
:104A000080936B0080916800816008C080916B008A
:104A10008F7D80936B00809168008E7F809368000B
:104A200008956F927F928F929F92AF92BF92CF9292
:104A3000DF92EF92FF920F931F93CF93DF93EB01DF
:104A40008C015B0180E1A80EB11C89E9682E96E714
:104A5000792E26E9822E3EE7932EC990D990E990CF
:104A6000F99020E030E0A901C701B6010E94C936E3
:104A70008823B9F0A7019601F801608171818281D4
:104A800093810E94D3366B017C01E894F7F893017F
:104A9000A401C701B6010E94EB38181614F03601C4
:104AA00047010C5F1F4FCA15DB05B9F6B301C401FE
:104AB000DF91CF911F910F91FF90EF90DF90CF90FA
:104AC000BF90AF909F908F907F906F9008954F927E
:104AD0005F926F927F92AF92BF92CF92DF92EF92EE
:104AE000FF920F931F93CF93DF93EC015C0180E162
:104AF000A80EB11C8E01C12CD12C7601F801419079
:104B00005190619071908F0120E030E0A901C301C4
:104B1000B2010E94C936882371F0A3019201C3013A
:104B2000B2010E942B399B01AC01C701B6010E9462
:104B3000D4356B017C010A151B0501F7C701B601CD
:104B40000E94CA396B017C019B01AC0160E070E0FE
:104B500080E89FE30E94D3362B013C01A301920120
:104B6000688179818A819B810E942B39699379932D
:104B700089939993AC16BD0689F7C701B601DF91F9
:104B8000CF911F910F91FF90EF90DF90CF90BF904A
:104B9000AF907F906F905F904F9008951F93CF9349
:104BA000DF93142F20E030E040EA51E40E942B39DB
:104BB0000E94B2360E944C37EB012097D1F08091D1
:104BC0002301811116C0111103C00E94063306C0D3
:104BD0000E94B31C8091240181FD0BC02FEF80E760
:104BE00092E0215080409040E1F700C00000219702
:104BF000E4CFDF91CF911F910895E2E1F1E0ACE8BD
:104C0000B5E041915191619171914D935D936D9397
:104C10007D9381E0E232F807A1F70895BF92CF9229
:104C2000DF92EF92FF920F931F93CF93DF937C015C
:104C3000FC0106A517A5D0A9C1A9858980FF18C0C8
:104C400060912A0170E080E090E00E947D372AE0C8
:104C500037ED43E25CE30E942B399B01AC01B801C4
:104C60008D2F9C2F0E942B398B01D82FC92F2DC03F
:104C700082FD17C06091290170E080E090E00E9401
:104C80007D372AE037ED43E25CE30E942B399B013C
:104C9000AC01B8018D2F9C2F0E942B398B01D82F8E
:104CA000C92FF701B2A4C3A4D4A4F5A42B2D3C2D85
:104CB0004D2D5F2DB8018D2F9C2F0E94EB381816BB
:104CC00024F40B2D1C2DDD2DCF2D20E030E040E80D
:104CD0005FE3B8018D2F9C2F0E94EB38181624F04B
:104CE00000E010E0D0E8CFE3B8018D2F9C2FDF91DA
:104CF000CF911F910F91FF90EF90DF90CF90BF90D9
:104D0000089580918A0590918B05981739F026E3D4
:104D1000829FC0011124865D9D4F089580E090E040
:104D2000089584E2ECE8F5E0DF011D928A95E9F749
:104D300010928A0510928B0581E0809329021092CF
:104D4000280208952F923F924F925F926F927F9226
:104D50008F929F92AF92BF92CF92DF92EF92FF928B
:104D60000F931F93CF93DF9330908B05311002C0C8
:104D7000D0E101C0D32DD150C0912802CD1709F444
:104D800016C1ED2EF12C26E3D29F80011124065D81
:104D90001D4FF801A28CB38CC48CD58C668D778D99
:104DA00080A191A19B01AC010E94D435F80122A100
:104DB00033A144A155A10E942B394B018C019B01C9
:104DC000AC01B501C6010E94C93687FD02C054017D
:104DD000680186E38E9DF0018F9DF00D1124E65D44
:104DE000FD4FC501D601868B978BA08FB18FD11156
:104DF00001C0D0E1D150CD1307C080918A05C813FE
:104E000068C00E94163165C026E32E9DC0012F9D0B
:104E1000900D11249C01265D3D4F790196E3292ECA
:104E2000AD2EB12C2A9CC0012B9C900D1124FC01AD
:104E3000E65DFD4F6F01D11101C0D0E1D1508091ED
:104E40008A058D1302C00E9416312A9C80012B9C7A
:104E5000100D1124065D1D4FF801828C938CA48CDB
:104E6000B58CA501940166897789808D918D0E940A
:104E7000C936882359F1F801668D778D80A191A1FB
:104E80009B01AC010E94D435F80122A133A144A1B9
:104E900055A10E942B39F70126893789408D518D04
:104EA0000E94D4352B013C019B01AC01C501B4012A
:104EB0000E94EB38F80118162CF4468A578A608E47
:104EC000718E04C0868A978AA08EB18E7601CD132A
:104ED000A7CFF6E3CF9F80011124065D1D4FCF5F62
:104EE000C03109F4C0E0D091280286E3282EC31512
:104EF00009F45BC0CC2ED12C2C9CC0012D9C900DB4
:104F000011249C01265D3D4F7901F80146885788A0
:104F1000608C718CF90186889788A08CB18CA50172
:104F20009401C301B2010E94C93687FF24C0F80171
:104F3000668D778D80A191A19B01AC010E94D43533
:104F4000F80122A133A144A155A10E942B39A3014C
:104F500092010E94D4352B013C019B01AC01C5019B
:104F6000B4010E94EB38181634F4F701468A578AC8
:104F7000608E718EDC2F2C9CF0012D9CF00D112485
:104F8000E65DFD4F228D338D448D558D6689778981
:104F9000808D918D0E94C936811101C0DC2FCF5FB9
:104FA000C03109F4C0E08701A2CFD0932802DF917D
:104FB000CF911F910F91FF90EF90DF90CF90BF9016
:104FC000AF909F908F907F906F905F904F903F90A9
:104FD0002F9008959F92AF92BF92CF92DF92EF925F
:104FE000FF920F931F93CF93DF935B018A017C01A4
:104FF000E40EF51EEC01912C6B01C81AD90AC6010A
:105000008C0F9D1FCE15DF0589F00E945C29911041
:1050100008C0292D990C330B232F221F2227221F72
:1050200001C021E0982E920E8993E9CFC501800F2F
:10503000911F0E945C2921E030E0981611F020E0D9
:1050400030E0C901DF91CF911F910F91FF90EF9058
:10505000DF90CF90BF90AF909F9008959F92AF92B6
:10506000BF92CF92DF92EF92FF920F931F93CF9355
:10507000DF935C018A017B01E40EF51EEB01912CAC
:105080006C01C61AD70ACE018C0D9D1DCE15DF0509
:1050900089F0911008C0292D990C330B232F221F62
:1050A0002227221F01C021E06991922E960E0E94B4
:1050B0003A29E9CF692DC501800F911FDF91CF916A
:1050C0001F910F91FF90EF90DF90CF90BF90AF9026
:1050D0009F900C943A29CF93DF9321E5829FC001E2
:1050E0001124EC01DD5F40E550E0BE0181EA97E06C
:1050F0000E94EA27892B69F41092A1070E941834B4
:1051000040E550E061EA77E0CE010E942E2880E081
:1051100001C081E0DF91CF9108951F93CF93DF937A
:10512000C8E8D1E01881812F8F7D88836AE080E014
:1051300090E00E943A2945E650E063E371E081E0A7
:1051400090E00E942E281883DF91CF911F9108953F
:105150000F931F93CF93C82F8B010E94183421E126
:10516000C29FC001112440E150E0B8019E5FCF9181
:105170001F910F910C942E281F93CF93DF93182F1C
:10518000EB0181E1189FB00111247E5F40E150E006
:10519000CE010E94EA27892B59F480E1FE01119289
:1051A0008A95E9F7BE01812F0E94A82880E001C0FE
:1051B00081E0DF91CF911F910895EF92FF920F93BD
:1051C0001F93CF93DF93CDB7DEB760970FB6F894F8
:1051D000DEBF0FBECDBF182F80FF0BC085E6EFE905
:1051E000F3E0A3E3B1E005900D928A95E1F70E9408
:1051F0008D2811FF10C0CE0101967C0180E1F701DE
:1052000011928A95E9F700E0B701802F0E94A82843
:105210000F5F0830C9F712FF14C060E080E093E030
:105220000E943A2960E081E093E00E943A2960E020
:1052300081E593E00E943A2960E082E593E00E94D4
:105240003A2913FF0AC060E08EEA93E00E943A29EF
:1052500060E08FEA93E00E943A2960960FB6F894D6
:10526000DEBF0FBECDBFDF91CF911F910F91FF9099
:10527000EF900895F894F999FECF92BD81BD81E039
:105280008FBB80B58627482F082E000C550B262F84
:1052900030E024233523232B39F06F3F19F060BD14
:1052A00084E006C084E104C0882321F060BD84E26C
:1052B0008FBBF99A78940895F999FECF92BD81BD7C
:1052C00081E08FBB80B508952F923F924F925F92FD
:1052D0006F927F928F929F92AF92BF92CF92DF9206
:1052E000EF92FF920F931F93CF93DF93CDB7DEB76B
:1052F000EC970FB6F894DEBF0FBECDBF80912601AC
:1053000080FD7BC79091E2058091AC06981709F467
:1053100074C78091AF069091B006892B09F00BC33A
:105320001091260112FF09C080918B0526E3289F6A
:10533000C0011124865D9D4F02C00E94812690937A
:10534000B0068093AF062090AF063090B0062114CF
:10535000310409F452C700917D06802F817000FF4F
:1053600003C010927D06EAC090917C069F5F953045
:1053700009F0892F80937C06E82EF12C36E13E9DC2
:10538000F0013F9DF00D1124E25FF94FF093AE065E
:10539000E093AD06D10154969C915497948BE6E12D
:1053A0008E9FC001112420E030E04D915D916D9100
:1053B0007D91F901E80FF91FE25FF94F689412F847
:1053C000440F551F661F771F1694D1F740835183F2
:1053D000628373832C5F3F4F2031310531F726E123
:1053E0002E9DF0012F9DF00D11249F01225F394F5A
:1053F000F10180899189A289B38943E0880F991FBF
:10540000AA1FBB1F4A95D1F7F901808B918BA28B04
:10541000B38BD10150966D917D918D919C91539755
:105420000E947B3760938206709383068093840684
:1054300090938506F10122A133A144A155A10E94B8
:10544000D3369B01AC0160938606709387068093E8
:1054500088069093890660E070E080EA9FE30E94EE
:10546000D33660938A0670938B0680938C06909354
:105470008D0610927E0610927F0610928006109282
:10548000810611FD02C003FF1FC060919B06709151
:105490009C0680919D0690919E0660939306709362
:1054A000940680939506909396069B01AC010E940A
:1054B0002B39D10156966D937D938D939C9359977B
:1054C000077F00937D060FC0F10166897789808D83
:1054D000918D0E94CA3960939306709394068093CD
:1054E000950690939606F6E1FE9DC001FF9D900DF6
:1054F00011249C01225F394F7901D90155961C92E4
:105500008091880181FF1AC0F101858985FF16C04D
:1055100026A537A540A951A960E070E080E89FE387
:105520000E94D3366093A7067093A8068093A906BD
:105530009093AA06E1E0D7015596EC9310928F065E
:10554000109290061092910610929206D1015E96EA
:105550002D913D914D915C91919729833A834B8395
:105560005C8360E070E080E09FE30E94D3366D834F
:105570007E838F839887F10142A053A064A075A019
:1055800086889788A08CB18C11FF44C0F2E0F0931C
:105590008E06A50194010E942B399B01AC01C30129
:1055A000B2010E94D3356B017C0120E030E0A901FB
:1055B0000E94C93687FF1DC029813A814B815C81D9
:1055C000CA01B9010E94D435A30192010E942B396E
:1055D0009B01AC01C501B4010E94D3350E94CA39B8
:1055E00060939B0670939C0680939D0690939E0605
:1055F0009FC1C0928F06D0929006E0929106F092E1
:10560000920610929B0610929C0610929D06109294
:105610009E068EC110928E0640929F065092A00662
:105620006092A1067092A20612FF0CC010929B0617
:1056300010929C0610929D0610929E06C12CD12CB1
:10564000760124C0E0918A05EF5FE03109F4E0E0E3
:1056500080918B058E1759F026E32E9FF0011124BF
:10566000E65DFD4FC688D788E08CF18C03C0C12C65
:10567000D12C7601C701B6010E94CA3960939B06FE
:1056800070939C0680939D0690939E06C1010E9494
:105690000E26698B7A8B8B8B9C8B9B01AC010E94B5
:1056A0002B3969877A878B879C87A50194010E9493
:1056B000C93687FF6CC029853A854B855C85C50155
:1056C000B4010E94D3352D813E814F8158850E94BF
:1056D0002B399B01AC01C301B2010E94D335609309
:1056E0009F067093A0068093A1069093A20620E0E7
:1056F00030E0A9010E94C93618162CF132E030932F
:105700008E0629813A814B815C81CA01B9010E94D0
:10571000D435A30192010E942B399B01AC01C50134
:10572000B4010E94D3350E94CA3960939B067093DE
:105730009C0680939D0690939E0680917D068860CE
:1057400080937D06F5C0A701960169857A858B85D2
:105750009C850E94D3352D813E814F8158850E94C2
:105760002B396093A3067093A4068093A5069093AB
:10577000A60689899A89AB89BC89809397069093FC
:105780009806A0939906B0939A0693E0B6C0A70135
:105790009601C501B4010E94D3352D813E814F8110
:1057A00058850E942B39A30192010E94D43520E034
:1057B00030E040E05FE30E942B396D877E878F8762
:1057C000988B20E030E0A9010E94EB3818160CF00D
:1057D00097C02D853E854F855889C301B2010E942F
:1057E000EB3818160CF088C0A701960169857A85F8
:1057F0008B859C850E94D3352D813E814F815885B4
:105800000E942B399B01AC016093A3067093A40600
:105810008093A5069093A6066D857E858F859889D1
:105820000E94EB381816BCF529893A894B895C89A6
:1058300020939706309398064093990650939A06C2
:10584000A501940169857A858B859C850E94C9365E
:10585000811104C031E030938E066AC0A501940125
:1058600069857A858B859C850E94D3352D813E8103
:105870004F8158850E942B399B01AC01C301B201B5
:105880000E94D33560939F067093A0068093A10673
:105890009093A2064DC08D859E85AF85B889809373
:1058A0009F069093A006A093A106B093A2068093B2
:1058B000A3069093A406A093A506B093A6062981FB
:1058C0003A814B815C81CA01B9010E94D4352D8592
:1058D0003E854F8558890E942B39A70196010E9469
:1058E000D4350E94CA3960939706709398068093C6
:1058F000990690939A061CC092E090938E0618C069
:1059000010929F061092A0061092A1061092A20675
:1059100080919B0690919C06A0919D06B0919E0659
:105920008093970690939806A0939906B0939A0651
:1059300018601093260180910D06A82FB0E0BA8B55
:10594000A98B27E02A9FF0012B9FF00D1124ED5128
:10595000FA4F80917C0684834091AF065091B00647
:105960005CAF4BAFDA019296BC91BAA3FA01F3A1F6
:10597000FBA3DA019496BC91BCA3FA01F5A1FDA3A7
:1059800020918A0630918B0640918C0650918D06AD
:105990006AA17BA18B2F9F2F0E94D3356EA77FA773
:1059A00088AB99AB20E030E0A9010E94C93687FF9F
:1059B00004C01EA61FA618AA19AA209197062E8B0E
:1059C000309198063F8B40919906488F50919A06E6
:1059D000598F80919F068A8F9091A0069B8FA091EE
:1059E000A106AC8FB091A206BD8FE0919306E9832A
:1059F000F0919406FD8320919506298730919606B3
:105A00003D874091A3064EA35091A4065FA38091C9
:105A1000A50688A79091A60699A7A0918E06AD8BA2
:105A2000B0918F06BAA7E0919006EBA7F09191068E
:105A3000FCA7209192062DA730919B063BAB40918D
:105A40009C064CAB50919D065DAB80919E068EAB43
:105A50002EA13FA148A5592F6A8D7B8D8C8D9D8DE0
:105A60000E94C936811103C092E09AAB02C0A1E046
:105A7000AAAB3AA02BA01CA10DA18EE3C82E83ECEB
:105A8000D82E8EE2E82E89E3F82E412C512C3201DB
:105A9000CE8EDF8EE8A2F9A23D89313009F4F2C042
:105AA000ABADBCAD313008F47BC0333009F020C160
:105AB0005E962D913D914D915C919197C701B601F4
:105AC0000E942B394B015C012E893F89488D598DED
:105AD00069817D8189859D850E94D3359B01AC01BB
